:020000040800F2
:10000000D832002001010008992400086F18000868
:1000100047240008C9040008652B00080000000000
:10002000000000000000000000000000D12A0008CD
:10003000CB0400080000000007280008F72A000889
:100040001B0100081B0100081B0100081B01000820
:100050001B0100081B0100081B0100081B01000810
:100060001B0100081B0100081B0100081B01000800
:100070001B0100081B0100081B0100081B010008F0
:100080001B0100081B0100081B0100081B010008E0
:100090001B0100081B0100081B010008CD0400081B
:1000A0001B0100081B0100081B0100081B010008C0
:1000B0001B0100081B0100081B0100081B010008B0
:1000C0001B0100081B0100081B0100081B010008A0
:1000D0001B0100081B0100081B0100081B01000890
:1000E0001B0100081B0100081B010008DFF80CD0F1
:1000F00000F0D8F8004800471D2E0008D832002034
:100100000648804706480047FEE7FEE7FEE7FEE7B1
:10011000FEE7FEE7FEE7FEE7FEE7FEE7632B0008EB
:10012000ED000008D2B201E000F8012B491EFBD21D
:1001300070470022F6E710B513460A4604461946F2
:10014000FFF7F0FF204610BD30B480EA010202F054
:10015000004530F0004221F0004013D090B1C30DB3
:10016000D40DC2F31601C0F31600E41A41F40001E5
:1001700040F400027D34914201D3641C00E0490048
:10018000002C02DA30BC002070474FF4000000233E
:10019000914201D3891A034340084FEA4101F7D144
:1001A00051B1914202D14FF0004105E002D24FF02F
:1001B000010101E06FF0010103EBC450284430BCA1
:1001C00000F038B8C10F80EAE0700844CA079623EF
:1001D000002100F038B800F0004220F00040C10DCE
:1001E000C0F3160040F400007F2901DA00207047B8
:1001F000962903DCC1F19601C84001E09639884098
:10020000002AF4D04042704730B50B46014600202A
:100210002022012409E021FA02F59D4205D303FAC8
:1002200002F5491B04FA02F52844151EA2F1010249
:10023000F1DC30BD0029A8BF7047401C490008BF51
:1002400020F00100704710B4B0FA80FC00FA0CF006
:1002500050EA010404BF10BC704749B1CCF120043E
:1002600021FA04F411FA0CF118BF012121430843CB
:10027000A3EB0C01CB1D4FEA00614FEA102042BFF7
:10028000002010BC704700EBC35010440029A4BFED
:1002900010BC7047401C490008BF20F0010010BC92
:1002A00070470000064C074D06E0E06840F001038F
:1002B00094E8070098471034AC42F6D3FFF71AFFD2
:1002C00070540008905400082DE9FF41012002F00D
:1002D000E7FB052002F088FD0024114F80250194E2
:1002E0000294694638460095039400F019F980217C
:1002F000384600F005FA0646002002F0D1FB052042
:1003000002F072FD01200095CDE901040320039065
:100310006946384600F004F904B03046BDE8F08183
:10032000000C01402DE9FF470025012002F0C4FB2D
:100330000026DFF8688080270196029669464046CD
:100340000097039600F0ECF80024C14668064FEAD7
:100350001068012002F0A4FB052002F045FD802179
:10036000484600F0CDF940EA0805002002F098FB6D
:10037000052002F039FD641CE4B2082CE6D301200C
:100380000097CDE90106032003906946484600F036
:10039000C7F804B02846BDE8F0870000000C014013
:1003A0001FB504460020029080200090012001909B
:1003B0000320039069460A4800F0B2F8204602F094
:1003C0007BFB012002F06CFB052002F00DFD0020FC
:1003D00002F066FB04B00520BDE8104002F004BD49
:1003E000000C01407FB5054600200290802000905F
:1003F000012001900320039069460F4800F090F817
:100400005FF0000405F0800002F056FB012002F0CE
:1004100047FB052002F0E8FC002002F041FB05202C
:1004200002F0E2FC6806641C050EE4B2082CE9D375
:10043000BDE87F40FFF748BF000C01401FB500201A
:1004400002908020009001200190032003906946D3
:100450000B4800F065F8012002F02EFB012002F0AD
:100460001FFB052002F0C0FC002002F025FB052048
:1004700002F0BAFC04B00020BDE8104002F010BB4E
:10048000000C01401FB50020029080200090012048
:1004900001900320039069460A4800F041F80020CB
:1004A00002F00AFB012002F0FBFA052002F09CFC9E
:1004B000012002F001FB04B00520BDE8104002F06D
:1004C00093BC0000000C0140FEE770474FF4007041
:1004D00000F01AB87047000070B5044600F01AF931
:1004E0000546601C02D004480078044400F012F96C
:1004F000401BA042FAD370BD40000020B0F5007F41
:1005000001D101F0A5BD7047044910B50A68024247
:1005100002D00860FFF7F2FF10BD00001404014094
:100520002DE9F84FDFF8B891002409F1040A0AF127
:10053000040B23460F270BF1040EC9E00125A5404B
:100540002A40AA427DD1674ED1F804C0ACEB060820
:10055000B44532D014DCBCF1030F3AD009DCBCF155
:10056000000F2AD0BCF1010F1CD0BCF1020F31D119
:100570001DE0BCF1110F17D0BCF1120F2AD119E008
:10058000B8F5881F19D006DCB8F5803F15D0B8F54E
:10059000801F1FD111E0B8F5001F0ED0B8F5041F61
:1005A00018D10AE0CB6815E0CB681B1D12E0CB68C0
:1005B00008330FE0CB680C330CE08B682BB1012BB8
:1005C0004FF0080303D0456104E0042302E0056115
:1005D00000E00023FF2A01D8064601E000F10406EE
:1005E0004FEA840501D9A5F12005D6F8008007FA65
:1005F00005FC28EA0C0803FA05F548EA0508C6F8E0
:1006000000804D68ED0062D5374DAE6946F00106B9
:10061000AE61AD6924F0030605F001050095334D88
:1006200006EB050CDCF80850A607360F07FA06F8AB
:1006300025EA0805DFF8B880404503D14FF00008EF
:1006400017E044E0DFF8AC80404502D14FF00108EC
:100650000FE0DFF8A480404502D14FF0020808E027
:10066000DFF89880404502D14FF0030801E04FF0D9
:10067000040808FA06F848EA0508CCF808804D682E
:10068000D9F80060ED034D4601D5164300E09643CE
:100690002E604D68DAF80060AD03554601D516436B
:1006A00000E096432E604D68DBF80060ED025D4689
:1006B00001D5164300E096432E604D68DEF80060D9
:1006C000AD02754601D5164300E096432E60641CCA
:1006D0000D682A46E5407FF431AFBDE8F88F000091
:1006E0000004014000001110001002400000014011
:1006F00000080140000C01400010014000140140BE
:100700008068084000D0012070470AB1016170473D
:100710000904FBE7014880687047000040000020A2
:1007200070B5040025D094F83D00002520B984F868
:100730003C50204600F078FA242084F83D002068E0
:10074000016821F0010101602068016841F4004165
:1007500001602068016821F40041016000F0AAFCFA
:100760004D4A6168914201D84C4900E04C498842A9
:1007700001D2012070BD4B492368B0FBF1F15E68E6
:1007800026F03F060E435E606368934206D94FF43D
:10079000967359434FF47A73B1FBF3F12368491C04
:1007A0001E6A26F03F06314319626168914210D8F3
:1007B0004900401EB0FBF1F2521CC2F30B02042AA6
:1007C00001D2042022E0B0FBF1F0401CC0F30B008A
:1007D0001CE0A268F2B301EBC10303EB0116431E58
:1007E000B3FBF6F35B1C43F480431B0549D092B383
:1007F00001EBC10202EB0111401EB0FBF1F0401C05
:10080000C0F30B0040F4804040F400402168CA6906
:100810004CF6FF739A431043C861D4E907100143B3
:100820002068026822F0C00211430160D4E903018C
:1008300001432068826848F2FF339A431143816084
:10084000D4E9050108432168CA6822F0FF02104379
:10085000C86001E00EE016E02068016841F0010187
:1008600001602564202084F83D00256384F83E5013
:10087000002070BD01EB4106431EB3FBF6F35B1C89
:10088000B3E70120C2E701EB4101401EB0FBF1F0EC
:10089000401CC0F30B00B7E7A086010080841E0057
:1008A00000093D0040420F002DE9FF4F83B00025B5
:1008B000DDE910799A4693460446DDF848800095B4
:1008C000FFF728FF064694F83D0020287CD1192325
:1008D000012285492046009601F0DAF80028F5D17A
:1008E00094F83C0001286FD0012084F83C00206877
:1008F0000168C90703D1016841F001010160206866
:10090000016821F400610160222084F83D0040204C
:1009100084F83E0025646762A4F82A90608D2085E3
:100920007248E062CDE9008653465A462046049953
:1009300000F0B6FF00287DD1208DDFF8B49120278C
:1009400068B1012814D00228206801681ED041F443
:10095000806101602068416980690090B6E020688C
:10096000416981690091016841F400710160ADE065
:100970002068016821F48061016072B620684169D5
:1009800081690091016841F400710AE041F400615D
:10099000016072B62068416981690091016821F4A3
:1009A0008061016062B691E0032868D801280CD00C
:1009B000022843464FF000024946204600960FD0D9
:1009C00001F066F8B0BB10E08BE0324641462046AD
:1009D00001F0DDF870BB20680069616A08706CE0A6
:1009E00001F056F830BB72B634E02068016821F49B
:1009F0008061016072B620680069616A0870606A8F
:100A0000401C6062208D401E2085608D401E6085E8
:100A1000384846F2A8110068B0FBF1F0C0EBC00006
:100A200000EB80000090401E009008D020684069D4
:100A3000C04300E029E040070CD50098F3E744F8F4
:100A4000305F6773A573206940F02000206162B6B3
:100A500025731AE02068016841F400710160206884
:100A60000069616A0870606A401C6062218D491EDD
:100A70002185618D491E618562B621681BE0324681
:100A80004146204601F083F818B1012007B0BDE8C7
:100A9000F08F20680069616A0870606A401C6062BB
:100AA000218D491E2185618D491E618521684A6914
:100AB000D24352070AD409690170606A401C60621F
:100AC000208D401E2085608D401E6085208D002871
:100AD0007FF46AAF84F83D7084F83E5084F83C504F
:100AE000D4E70220D2E70000020010000000FFFF60
:100AF000040001004C0000202DE9FF4F83B09A460E
:100B0000DDE9119793460446DDF84080FFF702FEC9
:100B1000054694F83D0020287FD119230122404941
:100B20002046009500F0B4FF002876D194F83C00F0
:100B3000012872D0012084F83C0020680168C907B0
:100B400003D1016841F0010101602068016821F4CE
:100B500000610160212084F83D00402084F83E00BF
:100B600000262664C4F82480A4F82A90608D20858D
:100B70002C48E062CDE9007553465A462046049958
:100B800000F00CFF70B930E02A463946204601F0EB
:100B900031F858B1206C042804D12068016841F470
:100BA00000710160012007B0BDE8F08F606A216824
:100BB00000780861606A401C6062218D491E89B21C
:100BC0002185628D521E628522685369DB435B0773
:100BD0000BD469B100781061606A401C6062208D9E
:100BE000401E2085608D401E6085208D0028CBD161
:100BF0002A463946204600F025FF0028CAD154F87D
:100C00003D0B016841F400710160202004F81E09C9
:100C1000E67766770020C6E7FFE70220C3E700001B
:100C2000020010000000FFFF10B586B00021009107
:100C300001910291039100681349884222D1134C1B
:100C4000A06940F00800A061A069694600F00800B2
:100C500004904FF440700090122001900320039004
:100C60000B48FFF75DFC0B48416841F0E06141F043
:100C700002014160E06940F40010E061E06900F4C5
:100C80000010049006B010BD005400400010024057
:100C9000000C0140000001400248816802781144C4
:100CA0008160704740000020074810B5016841F09E
:100CB00010010160032000F075F8002000F006F834
:100CC00000F024F8002010BD0020024070B50D4D4A
:100CD00004464FF47A712878B1FBF0F00A490968AC
:100CE000B1FBF0F000F0AFFD48B9102C07D20022A4
:100CF0002146501E00F036F800206C6070BD0120C7
:100D000070BD0000400000204C0000200C4808B5D9
:100D1000816941F001018161816901F00101009166
:100D2000C16941F08051C161C06900F080500090FC
:100D30000448416821F0E06141F00071416008BD64
:100D40000010024000000140002809DB00F01F02F3
:100D5000012191404009800000F1E020C0F800111D
:100D600070470000F0B40E4B1B680C46C3F302231F
:100D7000C3F10705042D00D90425191D072901D247
:100D8000002300E0DB1E012606FA05F1491E214082
:100D900099409E40761E16403143F0BC01F0F8BEEB
:100DA0000CED00E0064900F0070208684FF6FF036B
:100DB000184040EA0220034A1043086070470000D0
:100DC0000CED00E00000FA050149012008627047BF
:100DD00000000E4210B529A401461DCC86B08DE856
:100DE0001D002AA02A4C006804900020012923D06D
:100DF00002293AD010291DD161682268D20119D583
:100E0000C1F38342C9031DF8020009D5616804AA31
:100E1000C1F34041515C1F4AB2FBF1F1484301E08C
:100E20001D4948436168490204D440005FF0030152
:100E3000B0FBF1F006B010BD226AC2F30121012916
:100E400003D1920701D5C803F4E7022905D1626AEC
:100E5000920702D549F64040ECE70329EAD1216820
:100E60008903E7D54FF22440E4E700F033F96168E5
:100E7000C1F38131491C4900DAE70000020304058F
:100E8000060708090A0B0C0D0E0F101001020000D6
:100E90000010024000127A0000093D002DE9F843DD
:100EA00005460078354CC00754D0E0690026C000E4
:100EB00008D4E06940F08050E061E069012600F06C
:100EC000805000902E480168C90512D40168804600
:100ED00041F480710160FFF71DFC074605E000BF8B
:100EE000FFF718FCC01B642823D8D8F80000C00501
:100EF000F6D5206A10F4407021D0A98801F4407121
:100F000081421CD0206A1F49012220F440700A60EF
:100F100000220A602062C00711D0FFF7FBFB0746E2
:100F200041F2883808E000BFFFF7F4FBC11B4145E0
:100F300002D90320BDE8F883206A8007F4D5206A2F
:100F4000696820F44070084320621EB1E06920F017
:100F50008050E0612878800705D56068A96820F492
:100F60004040084360602878C00605D56068E9689D
:100F700020F48000084360600020DBE7001002409E
:100F800000700040400442422DE9F0470F46050042
:100F900061D0434E306800F00700B84209D2306893
:100FA00020F0070038433060306800F00700B84296
:100FB00051D128683B4C810712D5400703D56068A2
:100FC00040F4E06060602878000703D5606840F472
:100FD000605060606068A96820F0F00008436060BD
:100FE0002878C00728D06868012810D02168022816
:100FF00010D0890700292EDA616821F0030101432E
:101000006160FFF787FB804641F288390DE0216877
:101010008903EFE78901EDE7FFF77CFBA0EB08010F
:10102000494502D90320BDE8F0876068696800F08F
:101030000C00B0EB810FEFD1306800F00700B84230
:101040000BD9306820F0070038433060306800F07A
:101050000700B84201D00120E5E72878400705D510
:101060006068E96820F4E060084360602878000761
:1010700006D56068296920F4605040EAC1006060CC
:1010800000F038F86168084AC1F30311515CC840A8
:101090000649086006480068FFF718FE0020C2E70E
:1010A0000020024000100240565400084C0000206E
:1010B000440000200448054900684968044AC1F317
:1010C0000221515CC84070474C00002000100240D3
:1010D000665400080448054900684968044AC1F399
:1010E000C221515CC84070474C00002000100240F3
:1010F0006654000812A185B00FC98DE80F0014A036
:10110000144A006804905168134801F00C03042B42
:1011100010D0082B0ED1C1F38343C9031DF803007F
:101120000AD5516804AAC1F34041515C0A4A5043B0
:10113000B0FBF1F005B0704708494843FAE70000FA
:1011400002030405060708090A0B0C0D0E0F101008
:10115000010200000010024000127A0000093D0068
:101160002DE9F84F040070D02078C04DC00749D059
:101170006868C0F38100012807D06868C0F3810067
:10118000022809D16868C00306D52868800339D5CC
:1011900060680028E7D035E06068B0F5803F0BD08C
:1011A00010B1B0F5A02F11D0286820F4803028604D
:1011B000286820F4802002E0286840F4803028600D
:1011C000606890B1FFF7A6FA06460AE0286840F486
:1011D00080202860F0E700BFFFF79CFA801B64289E
:1011E00073D828688003F7D50CE0FFF793FA06461A
:1011F00005E000BFFFF78EFA801B6428F0D828684E
:101200008003F7D420789A4E80074FF001094FF001
:10121000000839D5686810F00C0F07D06868C0F373
:101220008100022809D16868C00306D428688007B5
:1012300014D52069012808D110E02069B0B1C6F8A2
:101240000090FFF767FA074605E00AE1FFF762FA48
:10125000C01B0228C4D828688007F7D528686169B0
:1012600020F0F80040EAC10028600DE0C6F80080D8
:10127000FFF750FA074604E0FFF74CFAC01B0228BC
:1012800023D828688007F7D4207800072CD5794820
:10129000A169D9B1C0F80090FFF73CFA074604E015
:1012A000FFF738FAC01B02280FD8686A8007F7D505
:1012B00071484FF4FA510068B0FBF1F0009000BFA4
:1012C0000098411E0091FAD20EE080E0C0F8008044
:1012D000FFF720FA074604E0FFF71CFAC01B0228BC
:1012E00075D8686A8007F7D42078400760D5E86928
:1012F0000027C00008D4E86940F08050E861E86940
:10130000012700F0805000905C480168C90513D4A3
:101310000168834641F480710160FFF7FBF9824662
:1013200006E000BFFFF7F6F9A0EB0A0064284ED8EC
:10133000DBF80000C005F5D5E06801280AD008B147
:10134000052813D0286A20F001002862286A20F0BE
:10135000040002E0286A40F001002862E06841F2DF
:10136000883B98B1FFF7D6F982460BE0286A40F037
:1013700004002862EEE700BFFFF7CCF9A0EB0A01FA
:1013800059455AD8286A8007F6D50CE0FFF7C2F90C
:10139000824605E0FFF7BEF9A0EB0A0159454CD89B
:1013A000286A8007F6D41FB1E86920F08050E86110
:1013B000E06988B36968C1F38101022944D0022839
:1013C000C6F8608004D0FFF7A5F9044638E034E0A1
:1013D000FFF7A0F9074604E0FFF79CF9C01B0228BD
:1013E0002BD828688001F7D4206AB0F5803F05D15A
:1013F0006868A16820F4003008436860D4E90801F7
:101400000843696821F4741108436860C6F8609065
:10141000FFF780F9044606E025E000BFFFF77AF900
:10142000001B022809D828688001F7D51BE000BFFF
:10143000FFF770F9001B022802D90320BDE8F88FDE
:1014400028688001F4D40EE00128F7D06868226A89
:1014500000F48031914204D1616A00F47010884236
:1014600001D00120EAE70020E8E700000010024078
:1014700000004242800442424C00002000700040C4
:10148000024850F8210080B270470000006C004014
:10149000024800EB810091B201607047006C00408F
:1014A000F8B505004FF0000016460C46009006D037
:1014B0002CB100226946284600F019F808B1012035
:1014C000F8BD287B2070E87BE070697B6170A97BA8
:1014D000A17056B101F0A1F9E070607801F09DF9BA
:1014E0006070A07801F099F9A0700020F8BD2DE996
:1014F000F04791460C465FEA00084AD084B3D8F81A
:1015000000004068400744D4404601F025FA4FF4FB
:1015100061620546B0FBF2F1B0FBF2F302FB13503F
:101520003C23B0FBF3F0B5FBF2F6607002FB165003
:10153000B0FBF3F203FB1200A070182931D318207E
:10154000B1FBF0F7B1FBF0F200FB12102070404647
:1015500001F0FBF9411C04D0A84202D9461B02E06D
:1015600017E04FF0FF36A7EB071000EB4000C0EB91
:10157000001005EBC0152946404601F03CFA40B981
:10158000701C01D0711900E03146404601F01FFA8D
:1015900010B10120BDE8F0873946404601F048F916
:1015A00000E02170B9F1000F0BD0207801F035F97F
:1015B0002070607801F031F96070A07801F02DF9A9
:1015C000A0700020E6E7000070B5040003D0607C46
:1015D000002610B105E0012070BD2674204600F001
:1015E00043F802206074204600F010F9042578BB0F
:1015F000204601F074F958BB2068416821F00701CA
:101600004160A06820B11748016821F00101016024
:101610001448001F0168A26821F460711143016041
:101620006068411C04D10120FFF7D4FB80B1401E4B
:1016300021688A6822F00F0242EA10428A6021681B
:10164000CA6860F30F02CA60204601F063F908B16E
:101650006574C0E7E67301206073A07360740020B6
:1016600070BD0000306C004008B500680849884231
:101670000DD1FFF7A9FB0748C16941F00061C161C5
:10168000C069054900F0006000900120086008BDB5
:1016900000280040001002403C0442422DE9F04185
:1016A0000D4604003BD0C5B3207C01283AD04FF052
:1016B000010884F8108002206074E87872B301F0A9
:1016C000A3F8E073687801F09FF86073A87801F0E0
:1016D0009BF8A073C2B2617BE07B01F04DF92073EF
:1016E0002870204601F038F94FF46161B0FBF1F148
:1016F000002518292DD91822B1FBF2F1A1EB011117
:1017000001EB4101C1EB011100EBC116314620464E
:1017100001F071F90427C8B90BE000E004E00120F2
:10172000BDE8F0810220FBE7E07368786073A87879
:10173000CFE7204601F009F9411C0AD0B04208D297
:1017400006490144204601F042F910B1677425743E
:10175000E5E784F8118025740020E1E7805101005D
:101760002DE9F0410D46040024D01DB3207C012852
:1017700023D04FF0010884F810800220607428788C
:10178000EAB101F041F84FF4616100FB01F66878BD
:1017900001F03AF8C0EB001006EB8006A87801F0E3
:1017A00033F835182946204601F025F9002604278C
:1017B00010BB0FE00120BDE8F0810220FBE74FF4F1
:1017C000616148436978C1EB011100EB8100A978A0
:1017D0004518E7E72068416821F00501416020468F
:1017E00001F0B3F8411C0AD0A84208D206490144CE
:1017F000204601F0ECF810B167742674DAE784F83B
:10180000118026740020D6E78051010070B50400D5
:101810000AD02068416821F008014160FEF77AFF94
:1018200005464FF47A7608E0012070BDFEF772FF9E
:10183000401BB04201D9032070BD206840680007FA
:10184000F4D5002070BD10B5401EB0F1807F01D3EB
:10185000012010BD4FF0E02460610F21601701F0FE
:1018600097F90020A06107202061002010BDFEE74D
:1018700001684A69D24352050FD46FF480624A610D
:10188000002140F8301F202242738173026942F028
:1018900004020261017301207047002070470000BC
:1018A0002DE9F84F0446006889460B9D016898466B
:1018B000174641F4806101602068016841F480713D
:1018C000016000954FF0011B0022594620460A9BFB
:1018D00000F0DEF84FF4007A40B120680068C005DF
:1018E00001D5C4F840A00320BDE8F88F216809F0B5
:1018F000FE0008612B46284920460A9A00F0FCF8B1
:10190000F0BB20684169806900902A4620460A9908
:1019100000F070F940B1206C04283AD120680168C9
:1019200041F40071016034E0FEB2B8F1010F09D05A
:101930002168380A08612A4620460A9900F05AF9B7
:101940000028E8D1206806612A4620460A9900F05E
:1019500051F90028DFD12068016841F480710160ED
:1019600000950022594620460A9B00F091F8002875
:10197000B3D1216809F0FF0040F00100086100E0E8
:1019800007E02B46044920460A9A00F0B5F80028E3
:10199000AAD00120A8E70000020001002DE9F843C9
:1019A000044600680D46DDE908970168984616462A
:1019B00041F4807101604B4600224FF00111204636
:1019C000009700F065F848B120680068C00502D5AE
:1019D0004FF4007020640320BDE8F883216805F00F
:1019E000FE0008613B464A461549204600F084F84F
:1019F00088B920684169806900903A464946204686
:101A000000F0F8F848B1206C042804D1206801687F
:101A100041F4007101600120DEE7F5B2B8F1010F79
:101A200009D02168300A08613A464946204600F04C
:101A3000E1F80028E7D1206805610020CCE700002C
:101A40000200010070B516460D4604460DE0204622
:101A5000FFF70EFF08B1012070BD681C05D0FEF72E
:101A600059FE801BA84207D835B120684069C043A1
:101A70004007ECD4002070BD002044F8300F202136
:101A80006173A073216941F0200121612073E2E7B5
:101A90002DE9F0471E4690460D460446C1F3074720
:101AA000DDF8209008E0701C06D0FEF733FEA0EBB6
:101AB0000900B0420FD876B12068012F18D0806994
:101AC00025EA00000004000C14D000214145EAD0B2
:101AD0000020BDE8F087002044F8300F202161731A
:101AE000A073216941F02001216120730120F0E7FA
:101AF0004069E5E70121E9E72DE9F0479A4691467B
:101B00000E46044600254FF02008C1F3074725E0A4
:101B100020684069C043400514D42068016841F43E
:101B20000071016021686FF480604861256384F86A
:101B30003D8084F83E50206C40F00400206484F81E
:101B40003C501FE0B9F1FF3F08D0FEF7E3FDA0EBEA
:101B50000A0149450CD8B9F1000F09D02068012FBE
:101B600013D0806926EA00000004000C0BD0CFE7F8
:101B700044F8305F84F80D80A573206940F02000A0
:101B8000206125730120BDE8F0874069EAE72DE96F
:101B9000F041002590460E460446202717E0406994
:101BA000C043C0060CD454F8301B6FF010004861DD
:101BB00044F810596777A577206A2062257717E0E7
:101BC000FEF7A8FDA0EB0800B04208D83EB120689F
:101BD0004169C9434906E2D40020BDE8F08144F8D8
:101BE000305F6773A573206940F020002061257382
:101BF0000120F2E770B516460D4604460DE020467A
:101C0000FFF736FE08B1012070BD681C05D0FEF755
:101C100081FD801BA84207D835B120684069C043C8
:101C20000006ECD4002070BD002044F8300F2021C5
:101C30006173A073216941F0200121612073E2E703
:101C400010B50B21312000F044FF08212C2000F0BA
:101C500040FF08212D2000F03CFF80212E2000F0C5
:101C600038FF00211E2000F034FF00211F2000F06B
:101C700030FF0521BDE81040202000F02ABF000001
:101C80002DE9F04186B00025344800950195029574
:101C90000395816941F010018161816901F01001B2
:101CA0000491816941F020018161816901F0200185
:101CB0000491816941F004018161816901F00401AD
:101CC0000491816941F0080181618069244F00F02D
:101CD00008000490002240F21F413846FEF715FD2F
:101CE000DFF88080012240214046FEF70EFD0022F1
:101CF00080214046FEF709FD01241F20CDE90004A4
:101D00000326CDE9024669463846FEF709FC4FF442
:101D10007040CDE90005694602944046FEF700FC9C
:101D2000600200901048CDE9010569463846FEF78B
:101D3000F7FBA002CDE900040220CDE902066946C6
:101D40003846FEF7EDFBC0208DE87100694640463D
:101D5000FEF7E6FB06B0BDE8F0810000001002408F
:101D600000080140000C0140000021100D4810B592
:101D70000B4901600C49416000214FF480428160B1
:101D8000C0E9031241618161C1610162FEF7C8FCD3
:101D9000002803D0BDE81040FEF79CBB10BD00003A
:101DA00000540040702E0020801A06007FB50024E9
:101DB000474802940194C16941F00061C161C16961
:101DC00001F000610391C16941F08051C161C069B6
:101DD000414D00F0805003903E482860601EC5E9E8
:101DE00001042846FFF7F0FB08B1FEF773FB012161
:101DF0003948FFF745FB45F25106B0424BD023204E
:101E00008DF8080059208DF809008DF80A4001224C
:101E100002A93148FFF7A4FC08B1FEF75BFB0420E0
:101E20008DF8040011208DF8050019208DF80600AA
:101E300020208DF80700012201A92748FFF72EFC7A
:101E400008B1FEF747FB2868016841F00101016015
:101E5000002269462048FFF723FB324601211E4835
:101E6000FFF716FB9DF8032002211B48FFF710FB2C
:101E70009DF8012003211848FFF70AFB9DF8022076
:101E800004211548FFF704FB9DF8002005211248A6
:101E9000FFF7FEFA7FBD02210F48FFF7F1FA8DF838
:101EA000030003210C48FFF7EBFA8DF80100042131
:101EB0000948FFF7E5FA8DF8020005210648FFF70B
:101EC000DFFA8DF80000009800220190B4E70000CE
:101ED0000010024000280040C42E002038B5112810
:101EE00001D2112002E0202800D92020C0F12000DA
:101EF000C4B26946082000F087F901280DD19DF889
:101F0000000004F00F0120F00F0001438DF80010D5
:101F1000082000F067FA012800D0002038BD10B575
:101F200000F01F01052000F05DFA012800D000201C
:101F300010BD10B500F01F01062000F053FA012873
:101F400000D0002010BD00F001020421082000F0A4
:101F50005FBA38B504466946082000F055F90128F3
:101F60000ED19DF8000004F0070120F0070040EAC0
:101F700041118DF80010082000F034FA012800D03B
:101F8000002038BD10B500F01F01042000F02AFA2F
:101F9000012800D0002010BD014880697047000072
:101FA0002400002038B5294C606000F041F9012878
:101FB00046D16946002000F027F9012840D10020D1
:101FC000FFF7E0FF01283BD10020FFF7A8FF012821
:101FD00036D10020FFF7ADFF012831D10020FFF7F7
:101FE000B8FF01282CD10020FFF7ADFF012827D131
:101FF0001120FFF773FF012822D1032000F03AF9E6
:1020000001281DD100F04EF9012819D100F07BF90B
:10201000012815D1032000F05EF9012810D100201D
:1020200000F086F801280BD100F08BF8012807D1C9
:1020300000F016F9012803D100F017F9012801D0AA
:10204000002038BD0020E070012038BD24000020B1
:102050002DE9F84F684600F0C3F80128FAD19DF841
:102060000000314D314C00064CF250394FF4C86A33
:102070004FF0010B4FF4167705F5166828D50026AA
:10208000A068A26805EB800108EB820000F062F80E
:102090000128F5D120780028A06805D055F8201037
:1020A000494507D2002004E055F82000504501D9E9
:1020B00058462070A068401CB0FBF7F107FB1100E8
:1020C000A0602069401C2061761CF6B2112ED7D387
:1020D0009DF80000400624D54646A06805EB800127
:1020E000A06806EB800000F035F80128F5D12078D3
:1020F0000028A06805D055F82010494507D20020D7
:1021000004E055F82000504501D958462070A068D9
:10211000401CB0FBF7F107FB1100A0602069401CD8
:102120002061BDE8F88F0000B01B002024000020D3
:1021300010B501460C2000F055F9012800D0002010
:1021400010BD10B501460D2000F04CF9012800D05B
:10215000002010BD30B5054685B000200C46286033
:1021600008600122062103A88DE807001B481346DA
:102170000722AE214068FEF797FB10B1002005B0A2
:1021800030BD9DF80C00296801EB004028609DF8E7
:102190000D00296801EB002028609DF80E002968D9
:1021A000084428609DF80F00216801EB0040206082
:1021B0009DF81000216801EB002020609DF81100BF
:1021C0002168084420602868C0F311002860206856
:1021D000C0F3110020600120D1E70000240000209E
:1021E00038B5044600202070694600F00DF801283B
:1021F00001D0002038BD9DF80010207801F0E101E9
:1022000008432070012038BD0EB50122CDE900122F
:102210001346029202460548AE214068FEF744FB91
:1022200008B100200EBD01200EBD000024000020DA
:1022300008B5FF208DF800004021092000F0D2F8F9
:10224000012805D169460920FFF7DEFF012801D0EA
:10225000002008BD9DF800004006F3D4012008BD11
:1022600002460721022000F0D3B8024606210220D0
:1022700000F0CEB838B5044669460920FFF7C4FF20
:1022800001280DD19DF8000004F0070120F007009F
:1022900001438DF80010092000F0A4F8012800D0B7
:1022A000002038BD38B5044669460A20FFF7ACFF68
:1022B00001280ED19DF8000004F0030120F0030076
:1022C00040EA41118DF800100A2000F08BF8012837
:1022D00000D0002038BD38B5044669460A20FFF713
:1022E00093FF01280DD19DF8000004F0030120F0B8
:1022F000030001438DF800100A2000F073F8012854
:1023000000D0002038BD38B5044669460A20FFF7E2
:102310007BFF01280ED19DF8000004F0070120F09A
:10232000070040EA81018DF800100A2000F05AF8F9
:10233000012800D0002038BD7FB5284C0025E17869
:1023400071B102204FF4FA72012919D0022926D066
:10235000032904D12178D1B12169642915D87FBD21
:10236000A561656120780028F9D02561A068E0604A
:102370002420FFF7DDFE2420FFF7E3FE012004E028
:10238000217821B121699142E9D9E0707FBD002017
:10239000FFF7CEFE0120FFF7D4FEE5707FBD207869
:1023A0000028F4D00D4EB61C06F11603711E181F3E
:1023B0008DE84B00E0680A4983B2A1F5166001F090
:1023C00091F8E0684FF416716430B0FBF1F201FB54
:1023D0001200E06025610320D7E700002400002000
:1023E0001025002003B583B0012104AACDE9002106
:1023F0000246064802910B46AE214068FEF77CFB80
:1024000010B1002005B000BD0120FBE72400002032
:10241000F8B50C46154606466946FFF7F5FE012855
:102420000FD19DF80010A040814305F00100A040AD
:102430000843C1B28DF800103046FFF7D3FF0128E2
:1024400000D00020F8BDFEE770B5FDF7F7FFA6202D
:10245000FDF7C8FF3220FDF7C5FFFDF7EFFFA7200E
:10246000FDF7C0FF00240B4DFDF75CFF2855052C40
:102470000DD00020FDF794FF641CE4B2062CF3D3CA
:10248000FEF700F8BDE87040052000F09FBC012079
:10249000F0E700001800002070470000044B0128FE
:1024A00004D0002210211846FEF72FB90122F9E7C7
:1024B0000008014030B40021084B0A465FF00000DC
:1024C00003EBC004401CC0B262548028F8D3491CFE
:1024D000C9B20829F2D330BC00F098B850000020EF
:1024E000044B012804D0002208211846FEF70DB93C
:1024F0000122F9E70008014010B57F2814D83F29D0
:1025000012D80723A3EBD10301F00701C1F107049F
:102510000121A140064CDBB204EBC000002AC25CE2
:10252000C9B202D00A43C25410BD8A43FBE700007F
:102530005000002010B50120FFF7B0FF0120FFF789
:10254000CFFF002000F056F84FF47A70FDF7C4FF7B
:10255000012000F04FF8AE2000F013F9D52000F074
:1025600010F9502000F00DF9A82000F00AF93F20E2
:1025700000F007F9D32000F004F9002000F001F981
:10258000402000F0FEF88D2000F0FBF8142000F051
:10259000F8F8202000F0F5F8022000F0F2F8A12071
:1025A00000F0EFF8C02000F0ECF8DA2000F0E9F8D5
:1025B000122000F0E6F8812000F0E3F8EF2000F0B0
:1025C000E0F8D92000F0DDF8F12000F0DAF8DB20A7
:1025D00000F0D7F8302000F0D4F8A42000F0D1F8B3
:1025E000A62000F0CEF8AF2000F0CBF8BDE81040F8
:1025F000FFF760BF044B012804D0002204211846D5
:10260000FEF783B80122F9E70008014070B50E4ECD
:10261000002400BF04F1B000C0B200F0B2F8002006
:1026200000F0AFF8102000F0ACF8002506EBC50074
:10263000005D00F0C7F86D1CEDB2802DF6D3641C70
:10264000E4B2082CE6D370BD50000020044B0128F2
:1026500004D0002201211846FEF757B80122F9E7FD
:1026600000080140044B20B1012202211846FEF768
:102670004CB80022F9E70000000801402DE9FF4FA7
:102680001F460C468946580700D0012000EBD700B2
:1026900079084843203A00F0FF0A02F0FF0B0025BA
:1026A00039E00C2F09D0102F0BD0182F35D11C4931
:1026B0000BEBCB0001EB800006E00BEB4B00194964
:1026C000F8E7194901EB0B104FF00008465D3006A2
:1026D00001D50D9A02E00D9890B100222146009894
:1026E000FFF70AFF7006641C060EE4B2A4EB0900B3
:1026F000B84207D100984C46401CC0B2009008E098
:102700000122EBE708F1010000F0FF08B8F1080F23
:10271000DDD36D1CEDB25545C3D3BDE8FF8F00007E
:1027200004460008A03B0008144000082DE9F84FBB
:1027300004461F46802016460D46A0EB5709C3F1FC
:102740004008DDF828A016E0A14502D20024E819CF
:10275000C5B2A84503DA00242546FFF7ABFECDF845
:1027600000A032783B4629462046FFF787FF04EB5E
:102770005700C4B2761C307820385E28E4D9BDE812
:10278000F88F70B505460020FFF788FE0020FFF7A0
:10279000A7FE00240020FFF759FF05F08000FFF797
:1027A00061FF0120FFF752FF6806641C050EE4B2CA
:1027B000082CEFD30120FFF771FEBDE87040012027
:1027C000FFF78EBE70B505460020FFF767FE0120BB
:1027D000FFF786FE00240020FFF738FF05F0800099
:1027E000FFF740FF0120FFF731FF6806641C050E6C
:1027F000E4B2082CEFD30120FFF750FEBDE8704093
:102800000120FFF76DBE7047010901EB810100F067
:102810000F0000EB4100C0B27047002102E00A380F
:10282000C0B2491C0A28FAD2090740EA1160704771
:102830002DE9F04104460025C07B627BA37B42E08A
:10284000012A16D0032A14D0052A12D0072A10D044
:10285000082A0ED00A2A0CD00C2A0AD0042A10D03A
:10286000062A0ED0092A0CD00B2A0AD0022A0DD033
:1028700028E01F2B0CD30C2A05D101221346401C43
:1028800020E01E2B04D30123521C1BE01C2B02D280
:1028900003F1010316E011D183B29E0710D1642623
:1028A000B3FBF6F706FB173636B94FF4C876B3FB21
:1028B000F6F706FB17331BB91D2303E01D2B01D1CF
:1028C000032201236D1C8D42BAD3D1B2E073617330
:1028D000DAB2A27300F050F82073BDE8F08170B551
:1028E0000446FDF717FF05464FF47A7606E0FDF73C
:1028F00011FF401BB04201D9032070BD2068406821
:102900008006F4D52068416841F010014160002044
:1029100070BD000070B504460068416821F01001E8
:102920004160FDF7F7FE05464FF47A7607E000BFF9
:10293000FDF7F0FE401BB04201D9032070BD2068B6
:1029400040688006F4D5002070BD0168086A496AB5
:1029500089B241EA00407047006881698AB2C16962
:102960008BB2816989B28A4203D0C06961F31F408A
:10297000704743EA02407047F0B56424C1EBC103DD
:102980000927A500072603EB01130329B3FBF7F181
:1029900000F5FA60114401440AD2401EB0FBF4F283
:1029A00001EB9001B0FBF5F0891A0844001D08E026
:1029B000B0FBF4F201EB9001B0FBF5F0891A08448A
:1029C000801CB0FBF6F106FB1100C0B2F0BD70B583
:1029D0000D4606460024FFF782FF48B93168280CEF
:1029E00008623168A8B248623046FFF793FF00B131
:1029F0000124204670BD70B50D4606460024FFF741
:102A00006EFF48B93168280C88613168A8B2C86186
:102A10003046FFF77FFF00B10124204670BD002142
:102A2000102800D20146A0F110020A2A01D2811D0D
:102A3000C9B2A0F11A020A2A02D200F10C01C9B2ED
:102A4000A0F124020A2A02D200F11201C9B2A0F1B7
:102A50002E020A2A02D200F11801C9B2A0F13802EE
:102A60000A2A02D200F11E01C9B2A0F142020A2ACA
:102A700002D200F12401C9B2A0F14C020A2A02D20A
:102A800000F12A01C9B2A0F156020A2A02D200F1CD
:102A90003001C9B2602801D33630C1B20846704750
:102AA000044B012804D0002240211846FDF72DBE1A
:102AB0000122F9E7000C0140044B20B101228021E2
:102AC0001846FDF722BE0022F9E70000000C014085
:102AD000704770B50D460446FDF7B0FCA620FDF723
:102AE00081FC2046FDF77EFC2846FDF77BFCBDE817
:102AF0007040FDF7C7BCFEF7CFB870B594B0282181
:102B00006846FDF716FB14210AA8FDF712FB002406
:102B10000F940520009001A91094119412944FF481
:102B20008030012581E8310002260495CDE9076057
:102B30004FF4E01009906846FEF712FB0F20CDE934
:102B40000A06A802CDE90C4002210AA80E94FEF75D
:102B50001BFA2802CDE90F500FA8FEF79FF914B019
:102B600070BD7047FEE700000FB4084B10B504A914
:102B700002AA039800F02CF8044602A9002000F0F5
:102B8000D1F8204610BC5DF814FB0000252D00088C
:102B90000907090E002804DB00F1E02080F800148A
:102BA000704700F00F0000F1E02080F8141D70471E
:102BB00002E008C8121F08C1002AFAD17047704706
:102BC000002001E001C1121F002AFBD17047000064
:102BD0002DE9FF4F89B09B460446002506E02528D5
:102BE0000BD05A460B999047641C6D1C2078002826
:102BF000F5D10DB02846BDE8F08F0027B846012278
:102C0000474900E0074314F8013F203B02FA03F074
:102C10000842F7D120782E2819D114F8010F47F077
:102C200004072A280ED06FF02F022078A0F130017F
:102C300009290CD808EB880102EB410100EB0108DF
:102C4000641CF2E70A98641C50F8048B0A90207800
:102C50000028CED0642808D0692806D075281ED058
:102C60005A460B9990476D1C58E00A994FF00A0993
:102C700001C90A91002802DA40422D2102E03905FB
:102C800004D52B218DF82010012103E0F90704D091
:102C90002021F7E78A4608AE0DE00021FAE70A99FD
:102CA0004FF00A0901C90A91F7E74946FDF7ACFA66
:102CB000303106F8011D0028F7D1ADEB060000F118
:102CC0002009780701D44FF00108C84502DDA8EBC0
:102CD000090000E000208046002706E008A85A46C8
:102CE000C05D0B9990476D1C7F1C5745F6DB04E0D7
:102CF00030205A460B9990476D1CB8F10001A8F19D
:102D00000108F5DC05E016F8010B5A460B999047CF
:102D10006D1CB9F10001A9F10109F4DC641C65E73F
:102D2000092801000A68531C0B60107070470000EE
:102D300070B5FFF789FB00F075FE00F087FE214CAF
:102D40000120E1681E2903DD6268022A00D060606C
:102D500002220025002904DA616802290DD065608D
:102D60000CE06368012B02D0022B04D006E0626005
:102D700023685B1C2360002900DA606061691E29FA
:102D800003DDA368022B00D0A060002904DAA1684B
:102D900002290DD0A5600CE0A368012B02D0022B04
:102DA00004D006E0A2602268521C2260002900DAEA
:102DB000A0604FF400510448FDF7A2FC00B9256063
:102DC000206870BD00000020000C014070B5054671
:102DD00000244FF47A7603E0304600F005F8641CD6
:102DE000AC42F9D370BD000070B54FF0E024002272
:102DF00065690949A36909684843A1699942FCD0FA
:102E000002D2A3EB010302E0A5EB010633441A440E
:102E10000B468242F1D370BD20000020AAB0FDF71E
:102E200043FFFFF76AFEFEF72BFFFEF7BFFFFEF73B
:102E30009DFF002201211720FDF794FF1720FDF7C9
:102E400083FFFFF777FBC820FDF746FBFEF7F8FE90
:102E5000FA48FFF7A7F84FF00008DFF8E4A346466A
:102E60004FF48051D1465046FDF74AFC00287DD1F1
:102E70004FF49670FDF730FB002211A9F148FEF7E0
:102E800036FB00221BA9EF48FEF70AFB9DF86D00F8
:102E900012909DF86E000F909DF86F409DF84400D1
:102EA00007909DF845009DF846B0CA460690002759
:102EB0004FF00109E4A05A46D0E90010CDE90C100A
:102EC000E1A1D1E90001CDE91D01DFA0D0E90010A9
:102ED000CDE91F10DCA0D0E90010CDE90310DAA184
:102EE000D1E90001CDE90A01D7A0D0E90010CDE970
:102EF0000810D7A10CA8FFF737FED5A11DA8069A88
:102F0000FFF732FED2A11FA8079AFFF72DFED0A12E
:102F100003A80F9AFFF728FECDA10AA8129AFFF77F
:102F200023FE04F5FA62CAA108A8FFF71DFE0021DE
:102F30004D46102308AA0846CDF80090FFF7F6FB8F
:102F400010230AAA002130200095FFF7EFFB102381
:102F500003AA002148200095FFF7E8FB10231FAAD1
:102F6000182100200095FFF7E1FB00E0A2E010230C
:102F7000B8A218210F200095FFF7D8FB18211023C5
:102F80001DAA08460095FFF7D1FB1023B1A2182116
:102F900028200095FFF7CAFB10230CAA1821302027
:102FA0000095FFF7C3FB4FF4005155465046FDF71F
:102FB000A7FB00287ED04FF480512846FDF7A0FBE8
:102FC00018B9C8207F1CFDF787FA072F73D2DFE8F6
:102FD00007F004439AE1FDFCFB004FF480412846D2
:102FE000FDF78EFBB0B9632C00D1FF24641CE4B262
:102FF000C820FDF771FA2046FFF711FD8DF86F002C
:103000000F98FFF70CFD8DF86E0001221BA98D486B
:10301000FEF744FB4FF400412846FDF771FBA8B9C9
:1030200004B96424641EE4B2C820FDF755FA2046B2
:10303000FFF7F5FC8DF86F000F98FFF7F0FC8DF8A7
:103040006E0001221BA97F48FEF728FB00201023F9
:1030500008AA01460090EFE04FF480412846FDF7B2
:103060004FFBF0B912980C2801D100201290401C9F
:10307000C0B21290C820FDF72FFA1298FFF7CFFCCC
:103080008DF86D002046FFF7CAFC8DF86F000F9891
:10309000FFF7C5FC8DF86E0001221BA96948FEF7F9
:1030A000FDFA4FF400412846FDF72AFB08BB1298B1
:1030B000012801E0A8E176E101D10D201290401E27
:1030C000C0B21290C820FDF707FA1298FFF7A7FCCC
:1030D0008DF86D002046FFF7A2FC8DF86F000F9869
:1030E000FFF79DFC8DF86E0001221BA95548FEF7E5
:1030F000D5FA002010230AAA014600904DE100BF36
:10310000FFF714FB4FE14FF480412846FDF7F8FA32
:10311000C8B90F981F2801D100200F90401CC0B2E1
:103120000F90C820FDF7D8F90F98FFF778FC8DF8BD
:103130006E002046FFF773FC8DF86F0001221BA97B
:103140004048FEF7ABFA4FF400412846FDF7D8FAA5
:10315000C8B90F98012801D120200F90401EC0B29D
:103160000F90C820FDF7B8F90F98FFF758FC8DF8BD
:103170006E002046FFF753FC8DF86F0001221BA95B
:103180003048FEF78BFA002010230146009003AA76
:103190004820B5E74FF480412846FDF7B1FA10BB4F
:1031A0000798172801D1FF200790401CC0B2079054
:1031B000C820FDF791F90798FFF731FC8DF844001E
:1031C0000698FFF72CFC02E0E9E095E044E08DF87A
:1031D00045005846FFF723FC8DF84600012211A94F
:1031E0001848FEF7BDFA4FF400412846FDF788FA6B
:1031F000E8B9079808B918200790401EC0B2079098
:10320000C820FDF769F90798FFF709FC8DF844001D
:103210000698FFF704FC8DF845005846FFF7FFFBC2
:103220008DF84600012211A90648FEF799FA002000
:1032300010231FAA18210090002061E7702E0020A3
:10324000000C0140C42E00206675636B0000000076
:10325000256400003A0000004FF480412846FDF745
:103260004FFAF0B906983B2801D1FF200690401C88
:10327000C0B20690C820FDF72FF90698FFF7CFFBE4
:103280008DF845000798FFF7CAFB8DF844005846B3
:10329000FFF7C5FB8DF84600012211A97E48FEF715
:1032A0005FFA4FF400412846FDF72AFAE8B906987C
:1032B00008B93C200690401EC0B20690C820FDF719
:1032C0000BF90698FFF7ABFB8DF845000798FFF761
:1032D000A6FB8DF844005846FFF7A1FB8DF8460089
:1032E000012211A96C48FEF73BFA00201023182197
:1032F00000901DAA084603E74FF480412846FDF7D9
:10330000FFF9F8B9BBF13B0F01D14FF0FF0B0BF107
:10331000010000F0FF0BC820FDF7DEF85846FFF76C
:103320007EFB8DF846000798FFF779FB8DF8440087
:103330000698FFF774FB8DF84500012211A9564845
:10334000FEF70EFA4FF400412846FDF7D9F9F8B917
:10335000BBF1000F01D14FF03C0BABF1010000F0CD
:10336000FF0BC820FDF7B8F85846FFF758FB8DF85B
:1033700046000798FFF753FB8DF844000698FFF7C7
:103380004EFB8DF84500012211A94348FEF7E8F9EC
:10339000002010230CAA182100903020B0E600274E
:1033A000C820FDF799F83C480068016841F0010128
:1033B000016000220EA93848FEF772F845F251026A
:1033C00001213548FEF764F89DF83B200221324880
:1033D000FEF75EF89DF8392003212F48FEF758F8D4
:1033E0009DF83A2004212C48FEF752F89DF8382029
:1033F00005212948FEF74CF8FFF708F90A20FDF7E8
:103400006BF8FFF757F855E500F034FBFFF790FC39
:10341000024622A113A8FFF7A7FB0124102313AA39
:10342000302100200094FFF781F9FEF785FFFEF7B9
:10343000B3FD411EC72904D2B8F1000F01D10646E1
:10344000A04620B9B8F1010F01D10026B04632469E
:1034500014A121A8FFF788FB102321AA30214820BE
:103460000094FFF763F9642E0EDD01220F4D9402E4
:1034700021462846FDF749F96420FDF72DF8002282
:1034800021462846FDF741F9FFF7C0F80120FDF776
:1034900023F8FFF70FF8E3E4C42E002046543A2047
:1034A0002564000048523A256400000000080140ED
:1034B0002DE9F8418046DDE90706009017460C46E5
:1034C000099D404600F00AFA33463A4621464046F6
:1034D00000F03AFA2068A84200DB28462060BDE8E8
:1034E000F88100002DE9FF4FBFB01646DDE94C54CE
:1034F000002211464FF41673429809E03F9F57F897
:103500002070401C3A44B0FBF3F703FB1700491C42
:10351000B142F3DBB2FBF6F70022EA4942980DE034
:103520003F9B53F82030401CDB1B41F822304FF406
:103530001673B0FBF3FC03FB1C00521CB242EFDB22
:1035400000204FF4F87C00BF01EB800251F82030DE
:103550005768E3463B44D2E902723A441A44D3170F
:1035600002EB9372921041F82020401C5845EBDB8F
:10357000D54A00204FF4F77301EB800751F820C0C3
:103580007F688946A7EB0C0742F82070401C9842E0
:10359000F2DD002002EB800752F820107F689A4687
:1035A000394401EBD171491042F82010401C5045BC
:1035B000F0DBC64F0020964600230146421D08E07E
:1035C000A1EB00085EF821C037F81880491C0CFBFD
:1035D00018339142F4DB40F27A4193FBF1F14EF85B
:1035E0002010401C7346B0F5F47FE5DD0022104644
:1035F0004FEA0A0753F82010002900DC4942401C1A
:103600000A445045F6DD40F2EF1392FBF3F0082236
:10361000CDE9000205210291AB4A3CA917A8FFF7AA
:1036200047FF3C9900220DF15C0802291FDB0120B5
:10363000434609E003EB800C53F820705CF804CC9F
:10364000401CA7EB0C073A448842F3DB491E92FB6F
:10365000F1F0FCF7B7FD01469D48FCF775FDFCF75E
:10366000BAFD4E9908604F990120087005E04E9907
:10367000984808604F9800210170002041463C9F07
:1036800007E000BF51F8202026AB921C43F8202011
:10369000401CB842F6DB0021DFF83CE24FF4167222
:1036A000C84642980FE03F9B53F8203048F821303D
:1036B000409B53F820C0401CB0FBF2F34EF821C0F1
:1036C00002FB1300491CB142EDDB0022134627E048
:1036D00026A84FF0010950F823004FF08076411DD5
:1036E00051451CDCA0F1050CBCF1000F17DD401F9B
:1036F0000FE000BF58F820C0B44509DAB9F1000F57
:1037000001D04FF0000966460DF1200C4CF8230063
:10371000401C8842EEDBB9F1000F00D1521C5B1C4B
:10372000BB42D5DB022A03DA6A4828600020C4E0E5
:103730000020D9464FEA0E0C08EB800158F82030E3
:103740004E68E2463344D1E9026131441944CB1753
:1037500001EB9371891048F820100CEB80035CF8A2
:1037600020605F683E44D3E902733B443344DE1774
:1037700003EB96739B104CF82030401C4845DBDB74
:1037800000200DF1D40B3D9000214BF82010401C7F
:103790000528F9DB00204FF4FA7105E008AB53F877
:1037A00020308B42C0DC401C9042F7DB0023A2F1AA
:1037B000010960E008A800EB830650F823E0766872
:1037C0004FF07F42A6EB0E0011463A900A2851DDD9
:1037D0007046D4460DE000BF58F820708F4201DDDE
:1037E000394606905CF82070974201DD3A46059014
:1037F000401C8642F0DC5AF826C05AF82E003E9053
:10380000ACEB0000DDF814C0ACEB0E0778433A9F38
:1038100090FBF7F73E9807EB000C059F5AF82770CE
:10382000A7EB0C07039758F8260058F82E60DDF830
:1038300018C0801BACEB0E0778433A9F90FBF7F063
:103840003044059E039F58F826604F43301A50437A
:10385000F911C01100280DDD3D9A052A0ADA49B197
:103860006422514391FBF0F23D984BF820203D98A3
:10387000401C3D905B1C4B459CDB58463D9900F03D
:1038800099F83D9800EBD070401001280ADD0BEB51
:1038900080025BF8200052F8042C104400EBD0703A
:1038A000401001E05BF82000C11EB529BFF43CAF19
:1038B00006493E31085C28600120207043B0BDE815
:1038C000F08F0000100C002050040020605300080E
:1038D0000080BB4519FCFFFFE01300202DE9F043F9
:1038E000814600240120DDF81C805E1E0C6026E06D
:1038F00052F82070474521DD02EB800454F8044C57
:10390000A7421BDD012500E06D1C44199C4203DA2F
:1039100052F824C06745F7D0054452F82550AF420D
:103920000ADD0D680F2D07DA4FEA850C6D1C0D605E
:1039300049F80C00601C02E0204600E0401CB04248
:10394000D6DBBDE8F08300002DE9F0431E461346A8
:103950000C460A6805460146184600F045F84FF047
:10396000FF3840461CE00A46411CC6F100092160B0
:1039700013E000BF55F82170431C19D055F82030D2
:10398000FB1AB34201DC4B4506DA23684FEA830C8D
:103990005B1C236045F80C70491C9142EADB401C1B
:1039A00021688142DFDC2846BDE8F04300F002B820
:1039B0004346E5E730B5012312E000BF50F823404D
:1039C0001A4602E040F82250521E002A05DD00EBA4
:1039D000820555F8045CA542F4DC40F822405B1CEB
:1039E0008B42EBDB30BD0000F0B5012416E000BFD8
:1039F00051F82450234602E041F823605B1E002B5F
:103A000009DD01EB830650F8257056F8046C50F878
:103A100026C06745F0DC41F82350641C9442E7DB84
:103A2000F0BD0000084842F210720178407801EBC6
:103A30000020054918399042C86003DDA0F57F4099
:103A4000FF38C8607047000018000020084842F2A4
:103A500010720179407901EB002005491839904234
:103A6000486103DDA0F57F40FF38486170470000E2
:103A70001800002010B590B0002201A94348FDF7BE
:103A800036FD002202A94148FDF70AFD40A0D0E919
:103A90000010CDE903103EA0D0E90010CDE90510DB
:103AA0003BA1D1E90001CDE9070139A1D1E900012C
:103AB000CDE9090136A1D1E90001CDE90B0134A11D
:103AC000D1E90001CDE90D019DF8062032A103A83E
:103AD000FFF74AF89DF805202FA105A8FFF744F845
:103AE0009DF804202CA107A8FFF73EF89DF80A20B6
:103AF00029A109A8FFF738F89DF8092026A10BA8ED
:103B0000FFF732F89DF80B2023A10DA802F5FA6209
:103B1000FFF72AF80124002110230DAA084600947B
:103B2000FEF704FE10230BAA002130200094FEF7BC
:103B3000FDFD102309AA002148200094FEF7F6FDA0
:103B4000102307AA182100200094FEF7EFFD102390
:103B500012A218210F200094FEF7E8FD182110236F
:103B600005AA08460094FEF7E1FD10230BA21821D8
:103B700028200094FEF7DAFD102303AA1821302034
:103B80000094FEF7D3FD10B010BD0000C42E00203D
:103B90006675636B00000000256400003A000000B9
:103BA0000000000000000000000000000000000015
:103BB0003F400000000000000000300040003000E6
:103BC0004000000009000BC03D000BC03D00090093
:103BD00018C024407FE0224031800000180024C03B
:103BE0001B000D803240018003801C4027401C8058
:103BF00007400040100060000000000000000000CE
:103C00000000000000001F802040402000004020F5
:103C100020401F8000000000090006001F800600F1
:103C200009000000040004003F80040004000000BC
:103C3000001000600000000000000000040004000C
:103C40000400040004000000000000400000000028
:103C500000000000002001C0060038004000000005
:103C60001F802040204020401F80000000001040A6
:103C70003FC000400000000018C021402240244006
:103C80001840000010802040244024401B80000089
:103C900002000D0011003FC0014000003C802440A4
:103CA00024402440238000001F80244024403440CE
:103CB000038000003000200027C0380020000000F2
:103CC0001B802440244024401B8000001C0022C094
:103CD000224022401F800000000000000840000039
:103CE0000000000000000000046000000000000070
:103CF000000004000A001100208040400900090073
:103D00000900090009000000000040402080110067
:103D10000A000400180020002340240018000000BE
:103D20001F802040274029401F400000004007C05E
:103D300039000F0001C0004020403FC02440244013
:103D40001B8000001F802040204020403080000069
:103D500020403FC0204020401F80000020403FC046
:103D600024402E4030C0000020403FC024402E00A0
:103D7000300000000F0010802040224033800200FD
:103D800020403FC0040004003FC0204020402040AD
:103D90003FC02040204000000060202020203FC085
:103DA0002000200020403FC024400B0030C02040B5
:103DB00020403FC020400040004000C03FC03C00C9
:103DC00003C03C003FC0000020403FC00C40230027
:103DD0003FC020001F802040204020401F80000066
:103DE00020403FC024402400180000001F802140D4
:103DF000214020E01FA0000020403FC024402600BA
:103E000019C0004018C024402440224031800000E6
:103E1000300020403FC020403000000020003F80A4
:103E2000004000403F80200020003E0001C007000D
:103E300038002000380007C03C0007C038000000F0
:103E4000204039C0060039C0204000002000384022
:103E500007C0384020000000304021C026403840D4
:103E600020C00000000000007FE040204020000053
:103E7000000070000C0003800040000000004020A3
:103E800040207FE0000000000000200040002000F3
:103E900000000000001000100010001000100010C2
:103EA0000000000040000000000000000000028050
:103EB0000540054003C0004020003FC004400440CE
:103EC000038000000000038004400440064000001E
:103ED00000000380044024403FC0004000000380F5
:103EE0000540054003400000000004401FC024407E
:103EF00024402000000002E0055005500650042038
:103F000020403FC00440040003C0004000000440C3
:103F100027C000400000000000100010041027E03F
:103F20000000000020403FC00140070004C00440E2
:103F3000204020403FC000400040000007C0040077
:103F400007C0040003C00000044007C00440040090
:103F500003C00040000003800440044003800000D0
:103F6000041007F0045004400380000000000380A8
:103F70000440045007F00010044007C00240040051
:103F800004000000000006400540054004C0000099
:103F9000000004001F80044000400000040007806F
:103FA0000040044007C000400400070004C0018036
:103FB00006000400060001C0070001C00600000062
:103FC000044006C0010006C00440000004100710B1
:103FD00004E00180060004000000044005C0064023
:103FE000044000000000000004007BE040200000CE
:103FF000000000000000FFF0000000000000402072
:104000007BE0040000000000400080004000200031
:104010002000400000000000000000000000000040
:10402000000000000000000000001FCC000C000099
:1040300000000000000008003000600008003000B0
:1040400060000000022003FC1E20022003FC1E2052
:104050000220000000000E1811043FFF10840C78AD
:10406000000000000F0010840F3800C0077818848B
:104070000078000000780F8410C411240E9800E42A
:1040800000840008080068007000000000000000C4
:104090000000000000000000000007E018182004E5
:1040A00040020000000040022004181807E0000051
:1040B000000000000240024001800FF00180024039
:1040C000024000000080008000800FF80080008027
:1040D000008000000001000D000E00000000000044
:1040E0000000000000000080008000800080008050
:1040F000008000800000000C000C000000000000A8
:1041000000000000000000060018006001800600AA
:1041100018002000000007F0080810041004080828
:1041200007F000000000080408041FFC000400045D
:104130000000000000000E0C101410241044118424
:104140000E0C000000000C18100411041104128859
:104150000C700000000000E00320042408241FFC71
:104160000024000000001F9810841104110410881E
:1041700010700000000007F008881104110418886E
:104180000070000000001C00100010FC13001C0058
:104190001000000000000E381144108410841144F7
:1041A0000E38000000000700088C104410440888F6
:1041B00007F00000000000000000030C030C0000EA
:1041C00000000000000000000001010600000000E7
:1041D00000000000000000800140022004100808D8
:1041E00010040000022002200220022002200220EF
:1041F0000220000000001004080804100220014002
:104200000080000000000E001200100C106C1080E6
:104210000F00000003E00C1813E4142417C408284E
:1042200007D000000004003C03C41C40074000E429
:10423000001C000410041FFC1104110411040E885A
:104240000070000003E00C181004100410041008A3
:104250001C10000010041FFC1004100410040808B7
:1042600007F0000010041FFC1104110417C410040F
:104270000818000010041FFC1104110017C01000E2
:104280000800000003E00C181004100410441C780F
:104290000040000010041FFC108400800080108487
:1042A0001FFC10040000100410041FFC1004100474
:1042B0000000000000030001100110011FFE1000AB
:1042C0001000000010041FFC110403801464181C6B
:1042D0001004000010041FFC10040004000400047B
:1042E000000C000010041FFC1F0000FC1F001FFC3E
:1042F0001004000010041FFC0C04030000E0101860
:104300001FFC100007F0080810041004100408082F
:1043100007F0000010041FFC108410801080108033
:104320000F00000007F0081810241024101C080AC1
:1043300007F2000010041FFC1104110011C011301D
:104340000E0C000400000E1C110410841084104494
:104350001C3800001800100010041FFC100410008E
:104360001800000010001FF81004000400041004DE
:104370001FF8100010001E0011E0001C00701380D8
:104380001C0010001FC0103C00E01F0000E0103CAB
:104390001FC000001004180C163401C001C01634F0
:1043A000180C100410001C00130400FC13041C0063
:1043B000100000000804101C1064108413041C0476
:1043C000101800000000000000007FFE40024002C4
:1043D00040020000000030000C0003800060001C60
:1043E0000003000000004002400240027FFE000087
:1043F00000000000000000002000400040004000DD
:104400002000000000010001000100010001000186
:1044100000010001000040004000200000000000FA
:104420000000000000000098012401440144014400
:1044300000FC000410001FFC008801040104008837
:1044400000700000000000700088010401040104F5
:1044500000880000000000700088010401041108B9
:104460001FFC0004000000F8014401440144014421
:1044700000C800000000010401040FFC1104110435
:1044800011001800000000D601290129012901C9E5
:104490000106000010041FFC00840100010001045B
:1044A00000FC000400000104190419FC00040004CD
:1044B000000000000000000300010101190119FEC5
:1044C0000000000010041FFC0024004001B4010C97
:1044D000010400000000100410041FFC000400048C
:1044E00000000000010401FC0104010001FC0104C2
:1044F000010000FC010401FC008401000100010432
:1045000000FC0004000000F801040104010401049F
:1045100000F80000010101FF00850104010400888A
:104520000070000000000070008801040104010513
:1045300001FF00010104010401FC008401040100E9
:1045400001800000000000CC01240124012401248A
:104550000198000000000100010007F801040104B7
:1045600000000000010001F800040004000401083C
:1045700001FC0004010001800170000C00100160CA
:104580000180010001F0010C003001C00030010C7D
:1045900001F0010000000104018C00740170018C25
:1045A00001040000010101810171000E0018016089
:1045B0000180010000000184010C013401440184E8
:1045C000010C0000000000000000000001003EFCA3
:1045D000400240020000000000000000FFFF000059
:1045E000000000000000400240023EFC010000000C
:1045F00000000000000060008000800040004000DB
:10460000200020000000000000000000000000006A
:10461000000000000000000000000000000000009A
:10462000000000000000000000000000000000008A
:10463000000000000000000F80380FFE380F8038A7
:10464000000000000000000000000000000000006A
:1046500000000100000600000C00003800003100DE
:10466000000600000C0000380000300000000000D0
:104670000000000061800067F807F9800061800099
:1046800061800061800061800067F807F980006147
:104690008000000000000000000001C0E003E0F026
:1046A0000630080418081FFFFE040E080787F003F1
:1046B00081E000000000000001F000060C0004048E
:1046C00008060C7001F9C0000E00003BE000EC1879
:1046D000070808040C180003E00000000001E000D7
:1046E00007F003F818041C0804170807E1D003C0FA
:1046F000E00023B0003C080020080000100000008B
:104700000000000100003100003200001C00000029
:104710000000000000000000000000000000000099
:104720000000000000000000000000000000000089
:10473000000000007F0001FFC00780F00C0018108F
:104740000004200002000000000000200002100011
:10475000040C00180780F001FFC0007F000000007B
:104760000000000000000000000000000000000049
:104770004200006600006600003C0000180003FFD5
:10478000C0001800003C0000660000660000420007
:1047900000000000080000080000080000080000F9
:1047A000080001FFC0000800000800000800000821
:1047B000000008000000000000010000310000328D
:1047C00000001C00000000000000000000000000CD
:1047D00000000000000000000000000008000008C9
:1047E00000000800000800000800000800000800A1
:1047F00000080000080000080000000000000000A1
:104800000000000038000038000038000000000000
:104810000000000000000000000000000000000098
:1048200000000000000600001C0000700001800075
:104830000E0000380000C0000700001C000030001F
:1048400000000000000000007F8001FFE003807096
:104850000600180400080400080600180380700110
:10486000FFE0007F80000000000000000000010069
:104870000801000801000803FFF807FFF80000081E
:104880000000080000080000000000000000000117
:10489000C03802C058040098040118040218040427
:1048A00018061C1803F81801E0F8000000000000CA
:1048B00000000001C0E003C0F00400080408080480
:1048C000080806180803F41801E7F00001E00000EA
:1048D00000000000000000000300000D00001100B7
:1048E00000610000810803010807FFF80FFFF800CE
:1048F00001080001080000000000000000E007FCC3
:10490000D006080806100806100806100806183811
:10491000060FF00607C000000000000000000000C5
:104920003F8001FFE00384300208180410080410DF
:1049300008041008071810030FF00007C00000005B
:1049400000000000000003C0000700000600000691
:1049500000F80607F806180006E000070000060049
:104960000000000000000001E1E003F7F006341051
:10497000041808041808040C08040C080616180388
:10498000F3F001C1E000000000000000F80003FCAB
:104990003003063804020804020804020804041064
:1049A0000308F001FFC0007F0000000000000000CD
:1049B00000000000000000000000000070380070DF
:1049C0003800703800000000000000000000000007
:1049D00000000000000000000000000000000000D7
:1049E000301A00301C000000000000000000000031
:1049F000000000000000000000000008000014009B
:104A000000220000410000808001004002002004DC
:104A10000010080008000000000000002100002134
:104A200000002100002100002100002100002100E1
:104A30000021000021000021000000000000000013
:104A4000000008000804001002002001004000805F
:104A50008000410000220000140000080000000057
:104A600000000003C00004C0000400000800380873
:104A70000F380808380810000C300007E00003C0A9
:104A800000000000000000003F8000FFE003807095
:104A9000020F1006708804C088048308047F88020F
:104AA000C09003012000FE40000008000018000133
:104AB000F8003E0801C20007020007E20000FE0005
:104AC000001FC80001F800003800000804000807B3
:104AD000FFF807FFF8040808040808040808040899
:104AE0000806180803F41801E7F00001E0000000D0
:104AF000000000003F8001FFE00380700200180406
:104B000000080400080400080400100600200780C4
:104B1000C000000004000807FFF807FFF8040008C1
:104B2000040008040008040018020010038070014B
:104B3000FFE0007F8000000004000807FFF807FF87
:104B4000F8040808040808040808040808043E08D3
:104B500004000806001801006000000004000807B7
:104B6000FFF807FFF8040808040800040800040818
:104B700000043E0006000006000001800000000066
:104B8000000000003F8001FFE00380700600180471
:104B900000080402080402080203F00783F0000280
:104BA0000000020004000807FFF807FFF8040808E7
:104BB00000080000080000080000080004080807BA
:104BC000FFF807FFF80400080000000000000400E0
:104BD0000804000804000807FFF807FFF8040008AD
:104BE00004000804000800000000000000000000AD
:104BF0000006000007000001040001040001040099
:104C00000307FFFE07FFFC0400000400000400008F
:104C100004000807FFF807FFF8040C08001800005C
:104C20003E0004C7800503C80600F80400380400ED
:104C30001800000804000807FFF807FFF804000840
:104C4000000008000008000008000008000008003C
:104C5000001800006000000004000807FFF807804B
:104C60000807FC00007FC00003F80007C0007800C0
:104C700007800807FFF807FFF8040008040008078A
:104C8000FFF807000803C00000E000003800001E25
:104C9000000007000001C00400F007FFF804000056
:104CA000000000007F8001FFE00380700600180410
:104CB000000804000806001803003001FFE0007F30
:104CC0008000000004000807FFF807FFF80404084C
:104CD000040400040400040400040400060C00039F
:104CE000F80001F000000000000000007F8001FFDC
:104CF000E00380700600880400880400C806003CB9
:104D000003003E01FFE6007F840000000400080766
:104D1000FFF807FFF8040808040800040C00040F5B
:104D200000040BC00610F003F03801E00800000892
:104D300000000001E0F803F0300630100418080409
:104D40001808040C08040C080206180207F0078172
:104D5000E0000000018000060000040000040000E4
:104D600004000807FFF807FFF80400080400000427
:104D7000000006000001800004000007FFE007FFBC
:104D8000F0040018000008000008000008000008F7
:104D900000000804001007FFE00400000400000603
:104DA000000007E00007FE00041FE00001F800001B
:104DB000380001E0043E0007C000060000040000C7
:104DC00004000007E00007FFC0041FF80007C00749
:104DD000F80007FF80043FF80007C004F800070050
:104DE0000004000000000004000806001807C07856
:104DF00005F1C8003E00001F800463E80780F80644
:104E000000180400080000000400000600000780ED
:104E10000007E008047C08001FF80007F8001808E5
:104E200004E0080700000600000400000000000184
:104E300000080600380400F80403E8040F08047CA6
:104E40000805F00807C0080700180400600000000B
:104E50000000000000000000000000000000003F13
:104E6000FFFE20000220000220000220000220009D
:104E70000200000000000000000008000007000021
:104E800000C0000038000006000001C00000300033
:104E9000000E0000010000000000000000002000E3
:104EA000022000022000022000022000023FFFFE3C
:104EB00000000000000000000000000000000000F2
:104EC000000000000008000010000030000020007A
:104ED000003000001000000800000000000000008A
:104EE00000000100000100000100000100000100BD
:104EF00000010000010000010000010000010000AD
:104F0000010000010000000000000000002000007F
:104F10002000001000001000000000000000000051
:104F200000000000000000000000000000F0001978
:104F3000F8001B180022080026080024080024108E
:104F4000003FF8001FF800000800001800000004EF
:104F5000000007FFF80FFFF00018180010080020ED
:104F600008002008003018001FF0000FC0000000EB
:104F70000000000007C0001FF000183000200800EB
:104F80002008002008003C08001C10000060000001
:104F9000000000000000000007C0001FF0003818EB
:104FA00000200800200800200804101007FFF80F58
:104FB000FFF00000100000000000000000000007EB
:104FC000C0001FF000123000221800220800220842
:104FD000003208001E10000E20000000000000003B
:104FE000200000200800200801FFF803FFF8062039
:104FF0000804200804200807200003000000000027
:1050000000000000000E000E6E001FF30031B10022
:1050100020B10020B1003191001F13002E1E00208E
:105020000E00300000000004000807FFF80FFFF832
:10503000001008002000002000002008003FF800B9
:105040001FF8000008000000000000000000002021
:1050500008002008002008063FF8063FF800000876
:105060000000080000080000000000000000000030
:1050700000000000030000030020010020010020C8
:1050800003063FFE063FFC00000000000000000099
:1050900000000004000807FFF80FFFF80001880077
:1050A0000300002FC00038F800203800200800005E
:1050B00008000000000000000000040008040008D0
:1050C00004000807FFF80FFFF800000800000800C0
:1050D0000008000000000000002008003FF8003F2A
:1050E000F8001008002000003FF8003FF80010080A
:1050F000002000003FF8003FF8000008000000001A
:105100002008003FF8003FF80010080010000020C1
:1051100000002008003FF8001FF800000800000011
:105120000000000007C0000FF00018300030080039
:105130002008002008003008001830000FF0000799
:10514000C0000000000000002001003FFF003FFF02
:10515000001011002009002008002008003038004D
:105160001FF0000FC00000000000000007C0001F7B
:10517000F000381800200800200800200900101155
:10518000001FFF003FFF000001000000002008009A
:105190002008002008003FF8003FF8000808001031
:1051A000080020080020000030000030000000004F
:1051B000000000000000000C78001E1800330800FA
:1051C00023080021080021880021980030F00038D1
:1051D000600000000000000020000020000020000F
:1051E00000FFF003FFF8002008002008002008005E
:1051F0000030000000000000000000002000003F20
:10520000F0007FF8000018000008000008002010DF
:10521000003FF8007FF000001000000000000000D8
:105220002000003000003C00003F800023F0000020
:1052300078000070002380003C0000300000200057
:10524000002000003C00003FE00023F80000E000E8
:105250002700003E00003FE00021F80001E0003E92
:10526000000020000000000020080020080038385E
:10527000003E680027800003C8002CF80038380082
:10528000201800200800000000000000200000306E
:1052900003003C01003F830023EC000070002380EA
:1052A000003C000020000020000000000000000082
:1052B00000000038080020380020F80023E8002F04
:1052C00088003E0800380800201800007000000028
:1052D00000000000000000000000000000000000CE
:1052E00008000014001FF7FC300006200002000038
:1052F00000000000000000000000000000000000AE
:10530000000000000000FFFFFF00000000000000A0
:10531000000000000000000000000000000020006D
:10532000023000061FF7FC00140000080000000017
:105330000000000000000000000000000000001855
:10534000000060000040000040000020000010004D
:10535000000800000400000400000C000010000021
:1053600029001401000214012900000000000000BF
:10537000000000000000000000000000000000002D
:10538000000000000000000000000000000000001D
:1053900000000000000000000000000000005F5F4F
:1053A0005F606060616161616162626262626363E9
:1053B00063636363636364646464646464646464B3
:1053C00064646464646464646464636363636363A3
:1053D00063636262626262626161616160606060B7
:1053E0005F5F5F5E5E5E5D5D5D5C5C5C5B5B5A5AF1
:1053F000595959585857575656555554545352524F
:10540000515150504F4E4E4D4C4C4B4A4A494848D2
:10541000474645454443424241403F3E3E3D3C3B7A
:105420003A39383837363534333231302F2E2D2C47
:105430002B2A2928272625242322211F1E1D1C1B39
:105440001A19171615141311100F0E0C0B0A090751
:105450000605030201000000000000000000010238
:10546000030406070809000000000102030400000D
:10547000905400080000002050000000B02B0008ED
:10548000E05400085000002088320000C02B0008C3
:10549000000000000000000000000000000000000C
:1054A00000000000000000000000000000000000FC
:1054B00000000000000000000000000000000000EC
:1054C00000000000000000000000000000000000DC
:1054D0000100000010000000000000000024F400A3
:04000005080000ED02
:00000001FF
